{
  "transactions": [
    {
      "hash": "0x06fe602bede747dd046f5064804c9859129681f2a2e056a13000bc40403f106c",
      "transactionType": "CALL",
      "contractName": null,
      "contractAddress": "0x07088757f513c5e48aebb66f0a67f76260a737b4",
      "function": "approve(address,uint256)",
      "arguments": [
        "0xE03A1074c86CFeDd5C142C4F04F1a1536e203543",
        "115792089237316195423570985008687907853269984665640564039457584007913129639935"
      ],
      "transaction": {
        "from": "0x8cf2e7649d788f83fa32effa0386724f6fd78bd5",
        "to": "0x07088757f513c5e48aebb66f0a67f76260a737b4",
        "gas": "0xa581",
        "value": "0x0",
        "input": "0x095ea7b3000000000000000000000000e03a1074c86cfedd5c142c4f04f1a1536e203543ffffffffffffffffffffffffffffffffffffffffffffffffffffffffffffffff",
        "nonce": "0xd",
        "chainId": "0xaa36a7"
      },
      "additionalContracts": [],
      "isFixedGasLimit": false
    },
    {
      "hash": "0x7e7059ba62e4a711f16e6a75fae66721ccaf3f388d74ddfe85858f529674e5f1",
      "transactionType": "CALL",
      "contractName": null,
      "contractAddress": "0x07088757f513c5e48aebb66f0a67f76260a737b4",
      "function": "approve(address,uint256)",
      "arguments": [
        "0x59668e475A7498aB1BfF12b5D55b9A075B92349F",
        "115792089237316195423570985008687907853269984665640564039457584007913129639935"
      ],
      "transaction": {
        "from": "0x8cf2e7649d788f83fa32effa0386724f6fd78bd5",
        "to": "0x07088757f513c5e48aebb66f0a67f76260a737b4",
        "gas": "0xa581",
        "value": "0x0",
        "input": "0x095ea7b300000000000000000000000059668e475a7498ab1bff12b5d55b9a075b92349fffffffffffffffffffffffffffffffffffffffffffffffffffffffffffffffff",
        "nonce": "0xe",
        "chainId": "0xaa36a7"
      },
      "additionalContracts": [],
      "isFixedGasLimit": false
    },
    {
      "hash": "0xeef7dd82ac4d4758cefe170d4c63347d1e2d84d18c0b8d216d5864a06c7886f3",
      "transactionType": "CALL",
      "contractName": null,
      "contractAddress": "0x59668e475a7498ab1bff12b5d55b9a075b92349f",
      "function": "modifyLiquidity((address,address,uint24,int24,address),(int24,int24,int256,bytes32),bytes)",
      "arguments": [
        "(0x0000000000000000000000000000000000000000, 0x07088757F513C5E48aeBb66f0a67F76260A737B4, 100, 60, 0x0000000000000000000000000000000000000000)",
        "(-60, 60, 1000000000000000000, 0x0000000000000000000000000000000000000000000000000000000000000000)",
        "0x"
      ],
      "transaction": {
        "from": "0x8cf2e7649d788f83fa32effa0386724f6fd78bd5",
        "to": "0x59668e475a7498ab1bff12b5d55b9a075b92349f",
        "gas": "0x41317",
        "value": "0xbb4af76ef8322",
        "input": "0x5a6bcfda000000000000000000000000000000000000000000000000000000000000000000000000000000000000000007088757f513c5e48aebb66f0a67f76260a737b40000000000000000000000000000000000000000000000000000000000000064000000000000000000000000000000000000000000000000000000000000003c0000000000000000000000000000000000000000000000000000000000000000ffffffffffffffffffffffffffffffffffffffffffffffffffffffffffffffc4000000000000000000000000000000000000000000000000000000000000003c0000000000000000000000000000000000000000000000000de0b6b3a7640000000000000000000000000000000000000000000000000000000000000000000000000000000000000000000000000000000000000000000000000000000001400000000000000000000000000000000000000000000000000000000000000000",
        "nonce": "0xf",
        "chainId": "0xaa36a7"
      },
      "additionalContracts": [],
      "isFixedGasLimit": false
    }
  ],
  "receipts": [
    {
      "status": "0x1",
      "cumulativeGasUsed": "0x712b",
      "logs": [
        {
          "address": "0x07088757f513c5e48aebb66f0a67f76260a737b4",
          "topics": [
            "0x8c5be1e5ebec7d5bd14f71427d1e84f3dd0314c0f7b2291e5b200ac8c7c3b925",
            "0x0000000000000000000000008cf2e7649d788f83fa32effa0386724f6fd78bd5",
            "0x000000000000000000000000e03a1074c86cfedd5c142c4f04f1a1536e203543"
          ],
          "data": "0xffffffffffffffffffffffffffffffffffffffffffffffffffffffffffffffff",
          "blockHash": "0x6f67c41930d94be8edd76416763f47c06f20e6750959a7c6af413c54c472a58a",
          "blockNumber": "0x8ce177",
          "blockTimestamp": "0x68cccb58",
          "transactionHash": "0x06fe602bede747dd046f5064804c9859129681f2a2e056a13000bc40403f106c",
          "transactionIndex": "0x0",
          "logIndex": "0x0",
          "removed": false
        }
      ],
      "logsBloom": "0x00000000000000000000000000000000000000002000000000000000000000000000000000000000000000000000000000000000000000000010000000200000000000000040000000000000000000000000000000000000000000000000000000000000000000000000000080000000000000000000000000000000000000000000000000000000000010000000000000000000000010000000000000000000020000000000000000000000000000000000000001000000000000000000000000000000000000000000000000000000000000000000000000001000080000000010000000000000000000000000000000000000000000000000000000000000",
      "type": "0x2",
      "transactionHash": "0x06fe602bede747dd046f5064804c9859129681f2a2e056a13000bc40403f106c",
      "transactionIndex": "0x0",
      "blockHash": "0x6f67c41930d94be8edd76416763f47c06f20e6750959a7c6af413c54c472a58a",
      "blockNumber": "0x8ce177",
      "gasUsed": "0x712b",
      "effectiveGasPrice": "0xf424f",
      "blobGasPrice": "0x1f",
      "from": "0x8cf2e7649d788f83fa32effa0386724f6fd78bd5",
      "to": "0x07088757f513c5e48aebb66f0a67f76260a737b4",
      "contractAddress": null
    },
    {
      "status": "0x1",
      "cumulativeGasUsed": "0x712b",
      "logs": [
        {
          "address": "0x07088757f513c5e48aebb66f0a67f76260a737b4",
          "topics": [
            "0x8c5be1e5ebec7d5bd14f71427d1e84f3dd0314c0f7b2291e5b200ac8c7c3b925",
            "0x0000000000000000000000008cf2e7649d788f83fa32effa0386724f6fd78bd5",
            "0x00000000000000000000000059668e475a7498ab1bff12b5d55b9a075b92349f"
          ],
          "data": "0xffffffffffffffffffffffffffffffffffffffffffffffffffffffffffffffff",
          "blockHash": "0xd0e3b270a91d9c852e92da18fe6eaaf8e289c9b8248af172143bf3210ca4bbe8",
          "blockNumber": "0x8ce178",
          "blockTimestamp": "0x68cccb58",
          "transactionHash": "0x7e7059ba62e4a711f16e6a75fae66721ccaf3f388d74ddfe85858f529674e5f1",
          "transactionIndex": "0x0",
          "logIndex": "0x0",
          "removed": false
        }
      ],
      "logsBloom": "0x00000000000000000000000000000000000000002000000000000000000000000000000000000000000000000000000000000000000000000010000080200000000000000040000000000000000000000000200000000000000000000000000000000000000000000000000000000000000000000000000000000000000000000000000000000000000000000000000000000000000010000000000000000000020000000000000000000000000000000000000001000000000000000000000000000000000000000000000000000004000000000000000000000000080000000010000000000000000000000000000000000000000000000000000000000000",
      "type": "0x2",
      "transactionHash": "0x7e7059ba62e4a711f16e6a75fae66721ccaf3f388d74ddfe85858f529674e5f1",
      "transactionIndex": "0x0",
      "blockHash": "0xd0e3b270a91d9c852e92da18fe6eaaf8e289c9b8248af172143bf3210ca4bbe8",
      "blockNumber": "0x8ce178",
      "gasUsed": "0x712b",
      "effectiveGasPrice": "0xf424e",
      "blobGasPrice": "0x1c",
      "from": "0x8cf2e7649d788f83fa32effa0386724f6fd78bd5",
      "to": "0x07088757f513c5e48aebb66f0a67f76260a737b4",
      "contractAddress": null
    },
    {
      "status": "0x1",
      "cumulativeGasUsed": "0x2c93a",
      "logs": [
        {
          "address": "0xe03a1074c86cfedd5c142c4f04f1a1536e203543",
          "topics": [
            "0xf208f4912782fd25c7f114ca3723a2d5dd6f3bcc3ac8db5af63baa85f711d5ec",
            "0x47daa5a605a77e02270831ed76e80984f489bdd744494177fde0f2f7816564aa",
            "0x00000000000000000000000059668e475a7498ab1bff12b5d55b9a075b92349f"
          ],
          "data": "0xffffffffffffffffffffffffffffffffffffffffffffffffffffffffffffffc4000000000000000000000000000000000000000000000000000000000000003c0000000000000000000000000000000000000000000000000de0b6b3a76400000000000000000000000000000000000000000000000000000000000000000000",
          "blockHash": "0x0168efd0bc98dc0f083ff0ce5d57e3b4020d42274b7f93620ac7d3bbd3ffc3c2",
          "blockNumber": "0x8ce179",
          "blockTimestamp": "0x68cccb58",
          "transactionHash": "0xeef7dd82ac4d4758cefe170d4c63347d1e2d84d18c0b8d216d5864a06c7886f3",
          "transactionIndex": "0x0",
          "logIndex": "0x0",
          "removed": false
        },
        {
          "address": "0x07088757f513c5e48aebb66f0a67f76260a737b4",
          "topics": [
            "0xddf252ad1be2c89b69c2b068fc378daa952ba7f163c4a11628f55a4df523b3ef",
            "0x0000000000000000000000008cf2e7649d788f83fa32effa0386724f6fd78bd5",
            "0x000000000000000000000000e03a1074c86cfedd5c142c4f04f1a1536e203543"
          ],
          "data": "0x000000000000000000000000000000000000000000000000000aa4426c1f8e7d",
          "blockHash": "0x0168efd0bc98dc0f083ff0ce5d57e3b4020d42274b7f93620ac7d3bbd3ffc3c2",
          "blockNumber": "0x8ce179",
          "blockTimestamp": "0x68cccb58",
          "transactionHash": "0xeef7dd82ac4d4758cefe170d4c63347d1e2d84d18c0b8d216d5864a06c7886f3",
          "transactionIndex": "0x0",
          "logIndex": "0x1",
          "removed": false
        }
      ],
      "logsBloom": "0x00000000000000000000000000000000000000002000000000000000000000000000000000000000000000000000000000000100000000000010108080000000000000000040000000000008000000000000200000000000000000000000000000000000000000000000000080000000000000000000100000000010000000000000000001000000000010000000000000000000000010100000000000000000000004000000000000000000000000000000000001000000000000000000000000000002000000000000000000000004000000000000000000001000080000001000000000000000000000000000000004000000000000000000000000000000",
      "type": "0x2",
      "transactionHash": "0xeef7dd82ac4d4758cefe170d4c63347d1e2d84d18c0b8d216d5864a06c7886f3",
      "transactionIndex": "0x0",
      "blockHash": "0x0168efd0bc98dc0f083ff0ce5d57e3b4020d42274b7f93620ac7d3bbd3ffc3c2",
      "blockNumber": "0x8ce179",
      "gasUsed": "0x2c93a",
      "effectiveGasPrice": "0xf424d",
      "blobGasPrice": "0x19",
      "from": "0x8cf2e7649d788f83fa32effa0386724f6fd78bd5",
      "to": "0x59668e475a7498ab1bff12b5d55b9a075b92349f",
      "contractAddress": null
    }
  ],
  "libraries": [],
  "pending": [],
  "returns": {},
  "timestamp": 1758260474021,
  "chain": 11155111,
  "commit": "e414a07"
}