{
  "transactions": [
    {
      "hash": "0x6f77f42ce7de72fda2dfd5d0d58236932496c6305ab2308864841215f3ed0874",
      "transactionType": "CALL",
      "contractName": null,
      "contractAddress": "0x07088757f513c5e48aebb66f0a67f76260a737b4",
      "function": "approve(address,uint256)",
      "arguments": [
        "0xE03A1074c86CFeDd5C142C4F04F1a1536e203543",
        "115792089237316195423570985008687907853269984665640564039457584007913129639935"
      ],
      "transaction": {
        "from": "0x8cf2e7649d788f83fa32effa0386724f6fd78bd5",
        "to": "0x07088757f513c5e48aebb66f0a67f76260a737b4",
        "gas": "0x107ae",
        "value": "0x0",
        "input": "0x095ea7b3000000000000000000000000e03a1074c86cfedd5c142c4f04f1a1536e203543ffffffffffffffffffffffffffffffffffffffffffffffffffffffffffffffff",
        "nonce": "0x8",
        "chainId": "0xaa36a7"
      },
      "additionalContracts": [],
      "isFixedGasLimit": false
    },
    {
      "hash": "0xed20809a1e21a817980b79e539755b118c5d351e44b9eb2b8ead6df7227d4627",
      "transactionType": "CALL",
      "contractName": null,
      "contractAddress": "0x07088757f513c5e48aebb66f0a67f76260a737b4",
      "function": "approve(address,uint256)",
      "arguments": [
        "0x59668e475A7498aB1BfF12b5D55b9A075B92349F",
        "115792089237316195423570985008687907853269984665640564039457584007913129639935"
      ],
      "transaction": {
        "from": "0x8cf2e7649d788f83fa32effa0386724f6fd78bd5",
        "to": "0x07088757f513c5e48aebb66f0a67f76260a737b4",
        "gas": "0x107ae",
        "value": "0x0",
        "input": "0x095ea7b300000000000000000000000059668e475a7498ab1bff12b5d55b9a075b92349fffffffffffffffffffffffffffffffffffffffffffffffffffffffffffffffff",
        "nonce": "0x9",
        "chainId": "0xaa36a7"
      },
      "additionalContracts": [],
      "isFixedGasLimit": false
    },
    {
      "hash": "0xc11fd0aaa315cf72c98cbc5c86de4c387feb8f0e9d3cd5d8c489d00554058684",
      "transactionType": "CALL",
      "contractName": null,
      "contractAddress": "0x59668e475a7498ab1bff12b5d55b9a075b92349f",
      "function": "modifyLiquidity((address,address,uint24,int24,address),(int24,int24,int256,bytes32),bytes)",
      "arguments": [
        "(0x0000000000000000000000000000000000000000, 0x07088757F513C5E48aeBb66f0a67F76260A737B4, 100, 60, 0x0000000000000000000000000000000000000000)",
        "(-60, 60, 1000000000000000000, 0x0000000000000000000000000000000000000000000000000000000000000000)",
        "0x"
      ],
      "transaction": {
        "from": "0x8cf2e7649d788f83fa32effa0386724f6fd78bd5",
        "to": "0x59668e475a7498ab1bff12b5d55b9a075b92349f",
        "gas": "0x68e1b",
        "value": "0xbb4af76ef8322",
        "input": "0x5a6bcfda000000000000000000000000000000000000000000000000000000000000000000000000000000000000000007088757f513c5e48aebb66f0a67f76260a737b40000000000000000000000000000000000000000000000000000000000000064000000000000000000000000000000000000000000000000000000000000003c0000000000000000000000000000000000000000000000000000000000000000ffffffffffffffffffffffffffffffffffffffffffffffffffffffffffffffc4000000000000000000000000000000000000000000000000000000000000003c0000000000000000000000000000000000000000000000000de0b6b3a7640000000000000000000000000000000000000000000000000000000000000000000000000000000000000000000000000000000000000000000000000000000001400000000000000000000000000000000000000000000000000000000000000000",
        "nonce": "0xa",
        "chainId": "0xaa36a7"
      },
      "additionalContracts": [],
      "isFixedGasLimit": false
    }
  ],
  "receipts": [
    {
      "status": "0x1",
      "cumulativeGasUsed": "0xbee7",
      "logs": [
        {
          "address": "0x07088757f513c5e48aebb66f0a67f76260a737b4",
          "topics": [
            "0x8c5be1e5ebec7d5bd14f71427d1e84f3dd0314c0f7b2291e5b200ac8c7c3b925",
            "0x0000000000000000000000008cf2e7649d788f83fa32effa0386724f6fd78bd5",
            "0x000000000000000000000000e03a1074c86cfedd5c142c4f04f1a1536e203543"
          ],
          "data": "0xffffffffffffffffffffffffffffffffffffffffffffffffffffffffffffffff",
          "blockHash": "0x9124a1cab29ea6d5da9716d39d9552637bad7d5f5dd0d26ab107a718b7b3742e",
          "blockNumber": "0x8ce172",
          "blockTimestamp": "0x68ccca87",
          "transactionHash": "0x6f77f42ce7de72fda2dfd5d0d58236932496c6305ab2308864841215f3ed0874",
          "transactionIndex": "0x0",
          "logIndex": "0x0",
          "removed": false
        }
      ],
      "logsBloom": "0x00000000000000000000000000000000000000002000000000000000000000000000000000000000000000000000000000000000000000000010000000200000000000000040000000000000000000000000000000000000000000000000000000000000000000000000000080000000000000000000000000000000000000000000000000000000000010000000000000000000000010000000000000000000020000000000000000000000000000000000000001000000000000000000000000000000000000000000000000000000000000000000000000001000080000000010000000000000000000000000000000000000000000000000000000000000",
      "type": "0x2",
      "transactionHash": "0x6f77f42ce7de72fda2dfd5d0d58236932496c6305ab2308864841215f3ed0874",
      "transactionIndex": "0x0",
      "blockHash": "0x9124a1cab29ea6d5da9716d39d9552637bad7d5f5dd0d26ab107a718b7b3742e",
      "blockNumber": "0x8ce172",
      "gasUsed": "0xbee7",
      "effectiveGasPrice": "0xf425a",
      "blobGasPrice": "0x39",
      "from": "0x8cf2e7649d788f83fa32effa0386724f6fd78bd5",
      "to": "0x07088757f513c5e48aebb66f0a67f76260a737b4",
      "contractAddress": null
    },
    {
      "status": "0x1",
      "cumulativeGasUsed": "0xbee7",
      "logs": [
        {
          "address": "0x07088757f513c5e48aebb66f0a67f76260a737b4",
          "topics": [
            "0x8c5be1e5ebec7d5bd14f71427d1e84f3dd0314c0f7b2291e5b200ac8c7c3b925",
            "0x0000000000000000000000008cf2e7649d788f83fa32effa0386724f6fd78bd5",
            "0x00000000000000000000000059668e475a7498ab1bff12b5d55b9a075b92349f"
          ],
          "data": "0xffffffffffffffffffffffffffffffffffffffffffffffffffffffffffffffff",
          "blockHash": "0x157f479ccdcaf20ea727181032b5d0ef535022deca23c599e0d264c925f1d66b",
          "blockNumber": "0x8ce173",
          "blockTimestamp": "0x68ccca87",
          "transactionHash": "0xed20809a1e21a817980b79e539755b118c5d351e44b9eb2b8ead6df7227d4627",
          "transactionIndex": "0x0",
          "logIndex": "0x0",
          "removed": false
        }
      ],
      "logsBloom": "0x00000000000000000000000000000000000000002000000000000000000000000000000000000000000000000000000000000000000000000010000080200000000000000040000000000000000000000000200000000000000000000000000000000000000000000000000000000000000000000000000000000000000000000000000000000000000000000000000000000000000010000000000000000000020000000000000000000000000000000000000001000000000000000000000000000000000000000000000000000004000000000000000000000000080000000010000000000000000000000000000000000000000000000000000000000000",
      "type": "0x2",
      "transactionHash": "0xed20809a1e21a817980b79e539755b118c5d351e44b9eb2b8ead6df7227d4627",
      "transactionIndex": "0x0",
      "blockHash": "0x157f479ccdcaf20ea727181032b5d0ef535022deca23c599e0d264c925f1d66b",
      "blockNumber": "0x8ce173",
      "gasUsed": "0xbee7",
      "effectiveGasPrice": "0xf4257",
      "blobGasPrice": "0x32",
      "from": "0x8cf2e7649d788f83fa32effa0386724f6fd78bd5",
      "to": "0x07088757f513c5e48aebb66f0a67f76260a737b4",
      "contractAddress": null
    },
    {
      "status": "0x1",
      "cumulativeGasUsed": "0x4beec",
      "logs": [
        {
          "address": "0xe03a1074c86cfedd5c142c4f04f1a1536e203543",
          "topics": [
            "0xf208f4912782fd25c7f114ca3723a2d5dd6f3bcc3ac8db5af63baa85f711d5ec",
            "0x47daa5a605a77e02270831ed76e80984f489bdd744494177fde0f2f7816564aa",
            "0x00000000000000000000000059668e475a7498ab1bff12b5d55b9a075b92349f"
          ],
          "data": "0xffffffffffffffffffffffffffffffffffffffffffffffffffffffffffffffc4000000000000000000000000000000000000000000000000000000000000003c0000000000000000000000000000000000000000000000000de0b6b3a76400000000000000000000000000000000000000000000000000000000000000000000",
          "blockHash": "0x38e8d02b0316117a2684ebf6e689085753953b02dd900a5f940d6718f596814d",
          "blockNumber": "0x8ce174",
          "blockTimestamp": "0x68ccca87",
          "transactionHash": "0xc11fd0aaa315cf72c98cbc5c86de4c387feb8f0e9d3cd5d8c489d00554058684",
          "transactionIndex": "0x0",
          "logIndex": "0x0",
          "removed": false
        },
        {
          "address": "0x07088757f513c5e48aebb66f0a67f76260a737b4",
          "topics": [
            "0xddf252ad1be2c89b69c2b068fc378daa952ba7f163c4a11628f55a4df523b3ef",
            "0x0000000000000000000000008cf2e7649d788f83fa32effa0386724f6fd78bd5",
            "0x000000000000000000000000e03a1074c86cfedd5c142c4f04f1a1536e203543"
          ],
          "data": "0x000000000000000000000000000000000000000000000000000aa4426c1f8e7d",
          "blockHash": "0x38e8d02b0316117a2684ebf6e689085753953b02dd900a5f940d6718f596814d",
          "blockNumber": "0x8ce174",
          "blockTimestamp": "0x68ccca87",
          "transactionHash": "0xc11fd0aaa315cf72c98cbc5c86de4c387feb8f0e9d3cd5d8c489d00554058684",
          "transactionIndex": "0x0",
          "logIndex": "0x1",
          "removed": false
        }
      ],
      "logsBloom": "0x00000000000000000000000000000000000000002000000000000000000000000000000000000000000000000000000000000100000000000010108080000000000000000040000000000008000000000000200000000000000000000000000000000000000000000000000080000000000000000000100000000010000000000000000001000000000010000000000000000000000010100000000000000000000004000000000000000000000000000000000001000000000000000000000000000002000000000000000000000004000000000000000000001000080000001000000000000000000000000000000004000000000000000000000000000000",
      "type": "0x2",
      "transactionHash": "0xc11fd0aaa315cf72c98cbc5c86de4c387feb8f0e9d3cd5d8c489d00554058684",
      "transactionIndex": "0x0",
      "blockHash": "0x38e8d02b0316117a2684ebf6e689085753953b02dd900a5f940d6718f596814d",
      "blockNumber": "0x8ce174",
      "gasUsed": "0x4beec",
      "effectiveGasPrice": "0xf4255",
      "blobGasPrice": "0x2d",
      "from": "0x8cf2e7649d788f83fa32effa0386724f6fd78bd5",
      "to": "0x59668e475a7498ab1bff12b5d55b9a075b92349f",
      "contractAddress": null
    }
  ],
  "libraries": [],
  "pending": [],
  "returns": {},
  "timestamp": 1758258475844,
  "chain": 11155111,
  "commit": "e414a07"
}