{
  "transactions": [
    {
      "hash": "0x36366099beacace712258d3256a7f84403daab5965c973a14680d3ceec2ecebb",
      "transactionType": "CALL",
      "contractName": null,
      "contractAddress": "0x07088757f513c5e48aebb66f0a67f76260a737b4",
      "function": "transfer(address,uint256)",
      "arguments": [
        "0x0000000000000000000000000000000000000001",
        "1"
      ],
      "transaction": {
        "from": "0x8cf2e7649d788f83fa32effa0386724f6fd78bd5",
        "to": "0x07088757f513c5e48aebb66f0a67f76260a737b4",
        "gas": "0x16def",
        "value": "0x0",
        "input": "0xa9059cbb00000000000000000000000000000000000000000000000000000000000000010000000000000000000000000000000000000000000000000000000000000001",
        "nonce": "0x8",
        "chainId": "0xaa36a7",
        "authorizationList": [
          {
            "chainId": "0xaa36a7",
            "address": "0x257f93af24c46ff8716d8df71442c8b0ca31879b",
            "nonce": "0x9",
            "yParity": "0x1",
            "r": "0x7cfa05332f971b89a695196f6b6d24a06da5b9500489aa39fa64100237d299c",
            "s": "0x3c3ca923b2626b323dd12d8927b622c78d3c6528e054a29363cb04610fdf2bbc"
          }
        ]
      },
      "additionalContracts": [],
      "isFixedGasLimit": false
    }
  ],
  "receipts": [
    {
      "status": "0x1",
      "cumulativeGasUsed": "0x108ef",
      "logs": [
        {
          "address": "0x07088757f513c5e48aebb66f0a67f76260a737b4",
          "topics": [
            "0xddf252ad1be2c89b69c2b068fc378daa952ba7f163c4a11628f55a4df523b3ef",
            "0x0000000000000000000000008cf2e7649d788f83fa32effa0386724f6fd78bd5",
            "0x0000000000000000000000000000000000000000000000000000000000000001"
          ],
          "data": "0x0000000000000000000000000000000000000000000000000000000000000001",
          "blockHash": "0x3c32cce487bc1b744ee799480540448f8c4f3063d113b977907f70e7086e3313",
          "blockNumber": "0x8ce171",
          "blockTimestamp": "0x68cccb23",
          "transactionHash": "0x36366099beacace712258d3256a7f84403daab5965c973a14680d3ceec2ecebb",
          "transactionIndex": "0x0",
          "logIndex": "0x0",
          "removed": false
        }
      ],
      "logsBloom": "0x00000000000000000000000000000000000000002000000000000000000000000000000000000000000000000000000000000000000000000010000000040000000000000040000000000008000000000000000000040000000000000000000000000000000000000000000000000000000000000000000000000010000000000000000000000000000000000000000000000000000010000000000000000000000000000000000000000000000000000000000001000000000000000000000000000002000000000000000000000000000000000000000000000000080040000000000000000000000000000000000000000000000000000000000000000000",
      "type": "0x4",
      "transactionHash": "0x36366099beacace712258d3256a7f84403daab5965c973a14680d3ceec2ecebb",
      "transactionIndex": "0x0",
      "blockHash": "0x3c32cce487bc1b744ee799480540448f8c4f3063d113b977907f70e7086e3313",
      "blockNumber": "0x8ce171",
      "gasUsed": "0x108ef",
      "effectiveGasPrice": "0xf425d",
      "blobGasPrice": "0x40",
      "from": "0x8cf2e7649d788f83fa32effa0386724f6fd78bd5",
      "to": "0x07088757f513c5e48aebb66f0a67f76260a737b4",
      "contractAddress": null
    }
  ],
  "libraries": [],
  "pending": [],
  "returns": {},
  "timestamp": 1758258107444,
  "chain": 11155111,
  "commit": "e414a07"
}