{
  "transactions": [
    {
      "hash": "0x2e85a4b013e929c207be30855f156c4dd21f4773d018bdbf4221c565a5cbd501",
      "transactionType": "CALL",
      "contractName": null,
      "contractAddress": "0x4337084d9e255ff0702461cf8895ce9e3b5ff108",
      "function": "handleOps((address,uint256,bytes,bytes,bytes32,uint256,bytes32,bytes,bytes)[],address)",
      "arguments": [
        "[(0x8CF2e7649D788f83Fa32EfFa0386724f6fD78BD5, 0, 0x, 0xb61d27f600000000000000000000000007088757f513c5e48aebb66f0a67f76260a737b4000000000000000000000000000000000000000000000000000000000000000000000000000000000000000000000000000000000000000000000000000000600000000000000000000000000000000000000000000000000000000000000044a9059cbb000000000000000000000000b6d4805bf6943c5875c0c7b67eda24b2bdacbf6e0000000000000000000000000000000000000000000000000de0b6b3a764000000000000000000000000000000000000000000000000000000000000, 0x000000000000000000000000000124f80000000000000000000000000000c350, 50000, 0x0000000000000000000000003b9aca000000000000000000000000003b9aca00, 0xc413050a7f581bdea919d6f6093476d44fd50e1d000000000000000000000000000864700000000000000000000000000000c350000000000000000000000000000000000000000000000000000000000000000000000000000000000000000007088757f513c5e48aebb66f0a67f76260a737b40000000000000000000000000000000000000000000000000000000000000064000000000000000000000000000000000000000000000000000000000000003c000000000000000000000000000000000000000000000000000000000000000000000000000000000000000007088757f513c5e48aebb66f0a67f76260a737b4000000000000000000000000ffffffffffffffffffffffffffffffffffffffff0000000000000000000000000000000000000000000000000000000068ccdaa20000000000000000000000000000000000000000000000000000000000000000000000000000000000000000c413050a7f581bdea919d6f6093476d44fd50e1d0000000000000000000000000000000000000000000000000000000068ccdaa20000000000000000000000000000000000000000000000000000000000000180000000000000000000000000000000000000000000000000000000000000004167d5377cf5236d733d1c8bc328995be1fe11a03e34cb86ff66f8c773ec2ba6031b6ea7991d0e0aac580b3ada3eadbf9dabe57f7763912b1c7480c7f49b34b4491b00000000000000000000000000000000000000000000000000000000000000, 0xd8a58d30fc3b82173b0ab2d82dd089b210d4d4f14aa698da52c614c6d2b4a42a198b88cfd42d506aa512566201d9b70d48e07a2d1db5e8843796c8d6d5f76a741c)]",
        "0x95c6771491b0CF0f47Dc3AEbb0E785408E742fFC"
      ],
      "transaction": {
        "from": "0x8cf2e7649d788f83fa32effa0386724f6fd78bd5",
        "to": "0x4337084d9e255ff0702461cf8895ce9e3b5ff108",
        "gas": "0xdf7d3",
        "value": "0x0",
        "input": "0x765e827f000000000000000000000000000000000000000000000000000000000000004000000000000000000000000095c6771491b0cf0f47dc3aebb0e785408e742ffc000000000000000000000000000000000000000000000000000000000000000100000000000000000000000000000000000000000000000000000000000000200000000000000000000000008cf2e7649d788f83fa32effa0386724f6fd78bd5000000000000000000000000000000000000000000000000000000000000000000000000000000000000000000000000000000000000000000000000000001200000000000000000000000000000000000000000000000000000000000000140000000000000000000000000000124f80000000000000000000000000000c350000000000000000000000000000000000000000000000000000000000000c3500000000000000000000000003b9aca000000000000000000000000003b9aca00000000000000000000000000000000000000000000000000000000000000026000000000000000000000000000000000000000000000000000000000000004c0000000000000000000000000000000000000000000000000000000000000000000000000000000000000000000000000000000000000000000000000000000e4b61d27f600000000000000000000000007088757f513c5e48aebb66f0a67f76260a737b4000000000000000000000000000000000000000000000000000000000000000000000000000000000000000000000000000000000000000000000000000000600000000000000000000000000000000000000000000000000000000000000044a9059cbb000000000000000000000000b6d4805bf6943c5875c0c7b67eda24b2bdacbf6e0000000000000000000000000000000000000000000000000de0b6b3a764000000000000000000000000000000000000000000000000000000000000000000000000000000000000000000000000000000000000000000000000000000000000000000000000000000000000000000000000000000000234c413050a7f581bdea919d6f6093476d44fd50e1d000000000000000000000000000864700000000000000000000000000000c350000000000000000000000000000000000000000000000000000000000000000000000000000000000000000007088757f513c5e48aebb66f0a67f76260a737b40000000000000000000000000000000000000000000000000000000000000064000000000000000000000000000000000000000000000000000000000000003c000000000000000000000000000000000000000000000000000000000000000000000000000000000000000007088757f513c5e48aebb66f0a67f76260a737b4000000000000000000000000ffffffffffffffffffffffffffffffffffffffff0000000000000000000000000000000000000000000000000000000068ccdaa20000000000000000000000000000000000000000000000000000000000000000000000000000000000000000c413050a7f581bdea919d6f6093476d44fd50e1d0000000000000000000000000000000000000000000000000000000068ccdaa20000000000000000000000000000000000000000000000000000000000000180000000000000000000000000000000000000000000000000000000000000004167d5377cf5236d733d1c8bc328995be1fe11a03e34cb86ff66f8c773ec2ba6031b6ea7991d0e0aac580b3ada3eadbf9dabe57f7763912b1c7480c7f49b34b4491b000000000000000000000000000000000000000000000000000000000000000000000000000000000000000000000000000000000000000000000000000000000000000000000000000041d8a58d30fc3b82173b0ab2d82dd089b210d4d4f14aa698da52c614c6d2b4a42a198b88cfd42d506aa512566201d9b70d48e07a2d1db5e8843796c8d6d5f76a741c00000000000000000000000000000000000000000000000000000000000000",
        "nonce": "0xe",
        "chainId": "0xaa36a7"
      },
      "additionalContracts": [],
      "isFixedGasLimit": false
    }
  ],
  "receipts": [
    {
      "status": "0x1",
      "cumulativeGasUsed": "0xa1cb8",
      "logs": [
        {
          "address": "0x000000000022d473030f116ddee9f6b43ac78ba3",
          "topics": [
            "0xc6a377bfc4eb120024a8ac08eef205be16b817020812c73223e81d1bdb9708ec",
            "0x0000000000000000000000008cf2e7649d788f83fa32effa0386724f6fd78bd5",
            "0x00000000000000000000000007088757f513c5e48aebb66f0a67f76260a737b4",
            "0x000000000000000000000000c413050a7f581bdea919d6f6093476d44fd50e1d"
          ],
          "data": "0x000000000000000000000000ffffffffffffffffffffffffffffffffffffffff0000000000000000000000000000000000000000000000000000000068ccdaa20000000000000000000000000000000000000000000000000000000000000000",
          "blockHash": "0x3de6f10188502249417989fa615f21f8f49c7801f2057aada8bb08fbde5c9e11",
          "blockNumber": "0x8ce178",
          "blockTimestamp": "0x68cccd7a",
          "transactionHash": "0x2e85a4b013e929c207be30855f156c4dd21f4773d018bdbf4221c565a5cbd501",
          "transactionIndex": "0x0",
          "logIndex": "0x0",
          "removed": false
        },
        {
          "address": "0xe03a1074c86cfedd5c142c4f04f1a1536e203543",
          "topics": [
            "0x40e9cecb9f5f1f1c5b9c97dec2917b7ee92e57ba5563708daca94dd84ad7112f",
            "0x47daa5a605a77e02270831ed76e80984f489bdd744494177fde0f2f7816564aa",
            "0x000000000000000000000000c413050a7f581bdea919d6f6093476d44fd50e1d"
          ],
          "data": "0x000000000000000000000000000000000000000000000000000002b969117086fffffffffffffffffffffffffffffffffffffffffffffffffffffd446ca2593d000000000000000000000000fffd8963efd1fc6a506488495d951d5263988d25000000000000000000000000000000000000000000000000000000000000000000000000000000000000000000000000000000000000000000000000000d89e70000000000000000000000000000000000000000000000000000000000000064",
          "blockHash": "0x3de6f10188502249417989fa615f21f8f49c7801f2057aada8bb08fbde5c9e11",
          "blockNumber": "0x8ce178",
          "blockTimestamp": "0x68cccd7a",
          "transactionHash": "0x2e85a4b013e929c207be30855f156c4dd21f4773d018bdbf4221c565a5cbd501",
          "transactionIndex": "0x0",
          "logIndex": "0x1",
          "removed": false
        },
        {
          "address": "0x07088757f513c5e48aebb66f0a67f76260a737b4",
          "topics": [
            "0xddf252ad1be2c89b69c2b068fc378daa952ba7f163c4a11628f55a4df523b3ef",
            "0x0000000000000000000000008cf2e7649d788f83fa32effa0386724f6fd78bd5",
            "0x000000000000000000000000c413050a7f581bdea919d6f6093476d44fd50e1d"
          ],
          "data": "0x000000000000000000000000000000000000000000000000000002bb935da6c3",
          "blockHash": "0x3de6f10188502249417989fa615f21f8f49c7801f2057aada8bb08fbde5c9e11",
          "blockNumber": "0x8ce178",
          "blockTimestamp": "0x68cccd7a",
          "transactionHash": "0x2e85a4b013e929c207be30855f156c4dd21f4773d018bdbf4221c565a5cbd501",
          "transactionIndex": "0x0",
          "logIndex": "0x2",
          "removed": false
        },
        {
          "address": "0x07088757f513c5e48aebb66f0a67f76260a737b4",
          "topics": [
            "0xddf252ad1be2c89b69c2b068fc378daa952ba7f163c4a11628f55a4df523b3ef",
            "0x000000000000000000000000c413050a7f581bdea919d6f6093476d44fd50e1d",
            "0x000000000000000000000000e03a1074c86cfedd5c142c4f04f1a1536e203543"
          ],
          "data": "0x000000000000000000000000000000000000000000000000000002bb935da6c3",
          "blockHash": "0x3de6f10188502249417989fa615f21f8f49c7801f2057aada8bb08fbde5c9e11",
          "blockNumber": "0x8ce178",
          "blockTimestamp": "0x68cccd7a",
          "transactionHash": "0x2e85a4b013e929c207be30855f156c4dd21f4773d018bdbf4221c565a5cbd501",
          "transactionIndex": "0x0",
          "logIndex": "0x3",
          "removed": false
        },
        {
          "address": "0x4337084d9e255ff0702461cf8895ce9e3b5ff108",
          "topics": [
            "0xbb47ee3e183a558b1a2ff0874b079f3fc5478b7454eacf2bfc5af2ff5878f972"
          ],
          "data": "0x",
          "blockHash": "0x3de6f10188502249417989fa615f21f8f49c7801f2057aada8bb08fbde5c9e11",
          "blockNumber": "0x8ce178",
          "blockTimestamp": "0x68cccd7a",
          "transactionHash": "0x2e85a4b013e929c207be30855f156c4dd21f4773d018bdbf4221c565a5cbd501",
          "transactionIndex": "0x0",
          "logIndex": "0x4",
          "removed": false
        },
        {
          "address": "0x4337084d9e255ff0702461cf8895ce9e3b5ff108",
          "topics": [
            "0xf62676f440ff169a3a9afdbf812e89e7f95975ee8e5c31214ffdef631c5f4792",
            "0x95c8656cdbb4cbfb4f7a8fc6f5d75e0b09a4252f2ce66f533047e0c328738270",
            "0x0000000000000000000000008cf2e7649d788f83fa32effa0386724f6fd78bd5"
          ],
          "data": "0x000000000000000000000000000000000000000000000000000000000000000000000000000000000000000000000000000000000000000000000000000000400000000000000000000000000000000000000000000000000000000000000044ad7954bc0000000000000000000000000000000000000000000000000000000000000020000000000000000000000000000000000000000000000000000000000000000000000000000000000000000000000000000000000000000000000000",
          "blockHash": "0x3de6f10188502249417989fa615f21f8f49c7801f2057aada8bb08fbde5c9e11",
          "blockNumber": "0x8ce178",
          "blockTimestamp": "0x68cccd7a",
          "transactionHash": "0x2e85a4b013e929c207be30855f156c4dd21f4773d018bdbf4221c565a5cbd501",
          "transactionIndex": "0x0",
          "logIndex": "0x5",
          "removed": false
        },
        {
          "address": "0x4337084d9e255ff0702461cf8895ce9e3b5ff108",
          "topics": [
            "0x49628fd1471006c1482da88028e9ce4dbb080b815c9b0344d39e5a8e6ec1419f",
            "0x95c8656cdbb4cbfb4f7a8fc6f5d75e0b09a4252f2ce66f533047e0c328738270",
            "0x0000000000000000000000008cf2e7649d788f83fa32effa0386724f6fd78bd5",
            "0x000000000000000000000000c413050a7f581bdea919d6f6093476d44fd50e1d"
          ],
          "data": "0x00000000000000000000000000000000000000000000000000000000000000000000000000000000000000000000000000000000000000000000000000000000000000000000000000000000000000000000000000000000000277932fd7f00000000000000000000000000000000000000000000000000000000000000a9898",
          "blockHash": "0x3de6f10188502249417989fa615f21f8f49c7801f2057aada8bb08fbde5c9e11",
          "blockNumber": "0x8ce178",
          "blockTimestamp": "0x68cccd7a",
          "transactionHash": "0x2e85a4b013e929c207be30855f156c4dd21f4773d018bdbf4221c565a5cbd501",
          "transactionIndex": "0x0",
          "logIndex": "0x6",
          "removed": false
        }
      ],
      "logsBloom": "0x000100000000000000000000000000000000000020000000000000000000000000080020000000000000000500000000000101000400000000101280000800000000000000400000000000080000021000000000000000200000000000000000000000000000000000000000a0000000000200000000100000800010000000000000004000000000800010000000000000000000000010100000000000000000000000000000000200400000000000000400000001000000100002000000000000000002000000000001000000000000000000000400200000001010080000001040000000000000004000000000000000000000000000000000000080000400",
      "type": "0x2",
      "transactionHash": "0x2e85a4b013e929c207be30855f156c4dd21f4773d018bdbf4221c565a5cbd501",
      "transactionIndex": "0x0",
      "blockHash": "0x3de6f10188502249417989fa615f21f8f49c7801f2057aada8bb08fbde5c9e11",
      "blockNumber": "0x8ce178",
      "gasUsed": "0xa1cb8",
      "effectiveGasPrice": "0xf424e",
      "blobGasPrice": "0x1c",
      "from": "0x8cf2e7649d788f83fa32effa0386724f6fd78bd5",
      "to": "0x4337084d9e255ff0702461cf8895ce9e3b5ff108",
      "contractAddress": null
    }
  ],
  "libraries": [],
  "pending": [],
  "returns": {},
  "timestamp": 1758262438492,
  "chain": 11155111,
  "commit": "e414a07"
}