{
  "transactions": [
    {
      "hash": null,
      "transactionType": "CALL",
      "contractName": null,
      "contractAddress": "0x4337084d9e255ff0702461cf8895ce9e3b5ff108",
      "function": "handleOps((address,uint256,bytes,bytes,bytes32,uint256,bytes32,bytes,bytes)[],address)",
      "arguments": [
        "[(0x8CF2e7649D788f83Fa32EfFa0386724f6fD78BD5, 0, 0x, 0xb61d27f600000000000000000000000007088757f513c5e48aebb66f0a67f76260a737b4000000000000000000000000000000000000000000000000000000000000000000000000000000000000000000000000000000000000000000000000000000600000000000000000000000000000000000000000000000000000000000000044a9059cbb000000000000000000000000b6d4805bf6943c5875c0c7b67eda24b2bdacbf6e0000000000000000000000000000000000000000000000000de0b6b3a764000000000000000000000000000000000000000000000000000000000000, 0x000000000000000000000000000124f80000000000000000000000000000c350, 50000, 0x0000000000000000000000003b9aca000000000000000000000000003b9aca00, 0xc413050a7f581bdea919d6f6093476d44fd50e1d000000000000000000000000000927c00000000000000000000000000000c350000000000000000000000000000000000000000000000000000000000000000000000000000000000000000007088757f513c5e48aebb66f0a67f76260a737b40000000000000000000000000000000000000000000000000000000000000064000000000000000000000000000000000000000000000000000000000000003c000000000000000000000000000000000000000000000000000000000000000000000000000000000000000007088757f513c5e48aebb66f0a67f76260a737b4000000000000000000000000ffffffffffffffffffffffffffffffffffffffff0000000000000000000000000000000000000000000000000000000068ccdaa20000000000000000000000000000000000000000000000000000000000000000000000000000000000000000c413050a7f581bdea919d6f6093476d44fd50e1d0000000000000000000000000000000000000000000000000000000068ccdaa20000000000000000000000000000000000000000000000000000000000000180000000000000000000000000000000000000000000000000000000000000004167d5377cf5236d733d1c8bc328995be1fe11a03e34cb86ff66f8c773ec2ba6031b6ea7991d0e0aac580b3ada3eadbf9dabe57f7763912b1c7480c7f49b34b4491b00000000000000000000000000000000000000000000000000000000000000, 0x2f2db7ea0ebdd201e81a1a20ba38d194aed456a20d9bc09c1a51d3090235534019d2c511ab02976c579d51a3fb2ea785a7f90d4fa55c8af19241d2e5421193f11c)]",
        "0x95c6771491b0CF0f47Dc3AEbb0E785408E742fFC"
      ],
      "transaction": {
        "from": "0x95c6771491b0cf0f47dc3aebb0e785408e742ffc",
        "to": "0x4337084d9e255ff0702461cf8895ce9e3b5ff108",
        "gas": "0xdf7d3",
        "value": "0x0",
        "input": "0x765e827f000000000000000000000000000000000000000000000000000000000000004000000000000000000000000095c6771491b0cf0f47dc3aebb0e785408e742ffc000000000000000000000000000000000000000000000000000000000000000100000000000000000000000000000000000000000000000000000000000000200000000000000000000000008cf2e7649d788f83fa32effa0386724f6fd78bd5000000000000000000000000000000000000000000000000000000000000000000000000000000000000000000000000000000000000000000000000000001200000000000000000000000000000000000000000000000000000000000000140000000000000000000000000000124f80000000000000000000000000000c350000000000000000000000000000000000000000000000000000000000000c3500000000000000000000000003b9aca000000000000000000000000003b9aca00000000000000000000000000000000000000000000000000000000000000026000000000000000000000000000000000000000000000000000000000000004c0000000000000000000000000000000000000000000000000000000000000000000000000000000000000000000000000000000000000000000000000000000e4b61d27f600000000000000000000000007088757f513c5e48aebb66f0a67f76260a737b4000000000000000000000000000000000000000000000000000000000000000000000000000000000000000000000000000000000000000000000000000000600000000000000000000000000000000000000000000000000000000000000044a9059cbb000000000000000000000000b6d4805bf6943c5875c0c7b67eda24b2bdacbf6e0000000000000000000000000000000000000000000000000de0b6b3a764000000000000000000000000000000000000000000000000000000000000000000000000000000000000000000000000000000000000000000000000000000000000000000000000000000000000000000000000000000000234c413050a7f581bdea919d6f6093476d44fd50e1d000000000000000000000000000927c00000000000000000000000000000c350000000000000000000000000000000000000000000000000000000000000000000000000000000000000000007088757f513c5e48aebb66f0a67f76260a737b40000000000000000000000000000000000000000000000000000000000000064000000000000000000000000000000000000000000000000000000000000003c000000000000000000000000000000000000000000000000000000000000000000000000000000000000000007088757f513c5e48aebb66f0a67f76260a737b4000000000000000000000000ffffffffffffffffffffffffffffffffffffffff0000000000000000000000000000000000000000000000000000000068ccdaa20000000000000000000000000000000000000000000000000000000000000000000000000000000000000000c413050a7f581bdea919d6f6093476d44fd50e1d0000000000000000000000000000000000000000000000000000000068ccdaa20000000000000000000000000000000000000000000000000000000000000180000000000000000000000000000000000000000000000000000000000000004167d5377cf5236d733d1c8bc328995be1fe11a03e34cb86ff66f8c773ec2ba6031b6ea7991d0e0aac580b3ada3eadbf9dabe57f7763912b1c7480c7f49b34b4491b0000000000000000000000000000000000000000000000000000000000000000000000000000000000000000000000000000000000000000000000000000000000000000000000000000412f2db7ea0ebdd201e81a1a20ba38d194aed456a20d9bc09c1a51d3090235534019d2c511ab02976c579d51a3fb2ea785a7f90d4fa55c8af19241d2e5421193f11c00000000000000000000000000000000000000000000000000000000000000",
        "nonce": "0x0",
        "chainId": "0xaa36a7"
      },
      "additionalContracts": [],
      "isFixedGasLimit": false
    }
  ],
  "receipts": [],
  "libraries": [],
  "pending": [],
  "returns": {},
  "timestamp": 1758262341984,
  "chain": 11155111,
  "commit": "e414a07"
}